:1000000001308A00DB290000FF00030E8301A100FC
:100010000A08A0008A010408A2007708A300780853
:10002000A4007908A5007A08A600831383120B1E8A
:100030001B288B1832288C308400001C21280C18B7
:100040003528220884002308F7002408F800250832
:10005000F9002608FA0020088A00210E8300FF0E0E
:100060007F0E09008A110A1244288A110A123828C0
:10007000AD01AC01AB01AA010C1083160C10831268
:100080000C108A110A122128AF01061853282F08D4
:10009000C73C031C5328AF0A2030F700F70B4E284B
:1000A0005128000045282F08C73C031C5A282F0858
:1000B0009F3C03187229AF01061C6A282F08633C75
:1000C000031C6A28AF0A2030F700F70B6528682860
:1000D00000005C282F08633C031C71282F081D3C7E
:1000E000031872292F083B3C031CAA28AF010618ED
:1000F00085282F080D3C031C8528AF0A2030F70007
:10010000F70B80288328000077282F080D3C031C5C
:100110008C282F08073C031872292A08FD3C031D70
:100120009A282B08023C031D9A282C0F9A28AD0808
:100130000319A7282A08DD3C031DAA282B08223C06
:10014000031DAA282C0FAA28AD08031DAA288E017A
:100150008F018E01B00130081F3C031C1F29AF0125
:100160000618BE282F080D3C031CBE28AF0A2030FD
:10017000F700F70BB928BC280000B0282F080D3C69
:10018000031CC5282F08073C03187229AF01061C61
:10019000D5282F08273C031CD528AF0A2030F700AC
:1001A000F70BD028D3280000C7282F08273C031CB2
:1001B000DC282F08073C031872292F08143C031869
:1001C000FD2830081F3CB500FA01F901F8010130A3
:1001D000F7003508B6000319F4280310F70DF80DE1
:1001E000F90DFA0DB60BED287708B1047808B204C2
:1001F0007908B3047A08B4041D2930081F3CB500FF
:10020000FA01F901F8010130F7003508B6000319C9
:1002100010290310F70DF80DF90DFA0DB60B092989
:10022000FF30F706F806F906FA067708B1057808F0
:10023000B2057908B3057A08B405B00AAB283108CD
:10024000FD3C031D2C293208023C031D2C29330FD1
:100250002C29B408031939293108DD3C031D402934
:100260003208223C031D4029330F4029B408031DE6
:1002700040298E018F018E010C1083160C148312FD
:1002800031081F3C031D55293208E03C031D552948
:10029000330F5529B408031D5529A80A2808143C12
:1002A000031854291430A80072293108573C031D43
:1002B0006A293208A83C031D6A29330F6A29B40849
:1002C000031D6A29A8032808013C031C6929023080
:1002D000A80072293408AD003308AC003208AB0026
:1002E0003108AA008B108A110A1221282E08FC3E20
:1002F00003188729043E882903308800872906309F
:10030000880087290C308800872909308800080078
:100310000A148A100A1182077C297F2982298529DB
:100320002E308400831300080319A3290230F8003B
:10033000F701F70B9929F80B98299730F700F70B7D
:100340009F29800B9629080087172908AE00902165
:1003500007172908AE00902187162908AE009021C2
:1003600007162908AE00902187130713871207127A
:100370002908AE0090218A110A12B62A8717290887
:10038000AE009021871307172908AE0090210713AC
:1003900087162908AE009021871207162908AE009B
:1003A000902107128713071387122908AE009021A6
:1003B0008A110A12C52AA7010230A8006430A900D8
:1003C00083161F149F141F159F1107309C00831361
:1003D0001F30830583128601F73083168600811350
:1003E00083128801003083168800831287018316E8
:1003F0008700A53083129000C0308B040B16831643
:1004000001138312AA08031D0E2AAB08031D0E2A2E
:10041000AC08031D0E2AAD080319022A2A081D3C48
:10042000031D1B2A2B08E23C031D1B2A2C0F1B2A31
:10043000AD080319282A2A08FD3C031D352A2B087C
:10044000023C031D352A2C0F352AAD08031D352A21
:10045000A70A2708033C0318342AA7012708AE007F
:1004600076212808AE0090210E2A2A085D3C031D43
:10047000422A2B08A23C031D422A2C0F422AAD0817
:1004800003194F2A2A08DD3C031D5C2A2B08223C55
:10049000031D5C2A2C0F5C2AAD08031D5C2AA708EB
:1004A000031D5B2A0430A700A7032708AE007621AE
:1004B0002808AE009021352A2A08CF3C031D6F2A58
:1004C0002B08303C031D6F2A2C0F6F2AAD08031D2B
:1004D0006F2A87176430AE00902187135C2A2A08A0
:1004E000E73C031D822A2B08183C031D822A2C0F8F
:1004F000822AAD08031D822A07176430AE009021BE
:1005000007136F2A2A08853C031D952A2B087A3C7D
:10051000031D952A2C0F952AAD08031D952A8716D1
:100520006430AE0090218712822A2A08EF3C031D16
:10053000A82A2B08103C031DA82A2C0FA82AAD08B6
:10054000031DA82A07166430AE0090210712952AD1
:100550002A08C73C031DB72A2B08383C031DB72ABD
:100560002C0FB72AAD08031DB72AA429A82A2A08E8
:10057000A53C031DC62A2B085A3C031DC62A2C0F76
:10058000C62AAD08031DC62ABE29B72A88018701DD
:100590002A081D3C031DD52A2B08E23C031DD52A41
:1005A0002C0FD52AAD080319E62A2A085D3C031D45
:1005B000E22A2B08A23C031DE22A2C0FE22AAD08F6
:1005C0000319E62AAD01AC01AB01AA01022A6300BE
:02400E00723FFF
:00000001FF
;PIC16F877A
;CRC=3105  CREATED="09-Oca-21 22:36"
